:100000000C94F0010C9415020C9416020C94170237
:100010000C94F2020C94F3020C94F4020C940D0371
:100020000C9438030C9439030C94B5030C94B60368
:100030000C94B7030C94B8030C94B9030C94CC0340
:100040000C94CD030C94CE030C940B020C940B0275
:100050000C94CF03D0C5CBC53A00C0C2D200D0D3D8
:10006000D700C2CACB00C2DBCA00CCC5CDDE3A0085
:10007000CFD0CEC3D0C0CCCCC000C4C0D2C02FC261
:10008000D0C5CCDF00C2DBD5CEC400C4CEC100D306
:10009000C4CB00D3D1D2C0C2CAC0002F002E003AB8
:1000A000002B00B0D100313A00323A000000540079
:1000B0005A005E00620066006A0070007A008500E7
:1000C0008B008F0093009B009D009F00A100A30068
:1000D000A600A900AC00FB00000000FA000000042C
:1000E00010010000002006000000300A0000064059
:1000F000110000005014000202E01602000E60170A
:10010000000000E01902000E701A000000802000BC
:100110000001E02500000CE02B000010E0310000A1
:1001200000E0DD110A138026100705E0DD110A1337
:10013000A037100C00903B0000000000000000FB06
:1001400000000000E0010000071011300205201639
:10015000300204301A3002034021000000502430E5
:100160000202E02600000E6027300201E0290000B4
:100170000E702A300200FA00000003E034100A0872
:100180000000000000FB00000000E00000000BB1D8
:1001900008100400E00A00000CB00B00040040103E
:1001A0003003015013300302E01500000E601630DA
:1001B0000303C01B300305D02B300306802030031F
:1001C00004E025000010E03010060AE034100509B4
:1001D000FA00000003E038100A080000000000FBED
:1001E00000000000E004000005E010000011FA002B
:1001F000000001E012100A07E020000012FA0000DF
:100200000002E022100A06FA00000000E034100AA2
:10021000080000000000FB00000000FA00000003DE
:100220005000000202E00202000E60030000009095
:10023000060000008008000000E00B000010FC0039
:10024000000000000000000000FF00000000040AA1
:100250000A0400040A0A0408047E040810207E2010
:1002600010000000000000005F0000000300030019
:10027000147F147F1426497F4932261608343240F1
:100280004040404000000700001C224100000000E8
:1002900041221C2A1C3E1C2A08083E080800006057
:1002A000E000101010101000006060002010080422
:1002B000023E5149453E00427F400042615149465D
:1002C0002241494936302824227F27454545393E79
:1002D00049494932016111090736494949362649D8
:1002E00049493E0000360000004036000000182456
:1002F000420014141414140042241800020151097D
:1003000006781412127E7E4A4A4A307E4A4A4A349D
:100310007E02020202C07C4242FE7E4A4A4A427685
:10032000087E0876424A4A4A347E1008047E7E10CF
:1003300009047E7E08081462780402027E7E0408A6
:10034000047E7E0808087E3C4242423C7E02020255
:100350007E7E1212120C3C4242424202027E020295
:100360004E5050503E1C227E221C62140814627EA5
:10037000404040FE0E1010107E7E407E407E7E404B
:100380007E40FE027E4848307E4830007E7E4848EF
:100390004830424A4A4A3C7E083C423C4C321212A7
:1003A0007E1F1C1F1E1F1E1F1F1E1F1E1FDFCDC2F4
:1003B000D4C5C2CCC0D0C0CFD0CCC0C9C8DECDC897
:1003C000DECBC0C2C3D1C5CDCECAD2CDCEDFC4C56F
:1003D000CAC2D1CFCDC2D2D1D0D7D2CFD2D1C10013
:1003E00011241FBECFE5D4E0DEBFCDBF10E0A0E6F4
:1003F000B0E0E0E5F4E202C005900D92A636B10748
:10040000D9F712E0A6E6B0E001C01D92A739B10706
:10041000E1F70C94D5040C9400000197F1F70895CE
:1004200085B7806485BF88950895189518951F92A3
:100430000F920FB60F9211242F933F934F935F9318
:100440006F937F938F939F93AF93BF93EF93FF939C
:1004500080916900882351F40E94EF0F80E180931E
:10046000690080916A008F5F80936A0080916900C3
:1004700081508093690080916B00882341F488E06B
:1004800080936B0080916C008F5F80936C008091F3
:100490006B00815080936B0080916B028150809340
:1004A0006B0280917400882341F480E18093740092
:1004B000809175008F5F80937500809174008150EA
:1004C0008093740080917200882341F480E18093CE
:1004D0007200809173008F5F80937300809172002F
:1004E00081508093720080917000882341F481E0F4
:1004F00080937000809171008F5F80937100809174
:10050000700081508093700080917600882341F4C0
:1005100080E180937600809177008F5F80937700F1
:1005200080917600815080937600809178008823B6
:1005300041F481E080937800809179008F5F80930F
:1005400079008091780081508093780080917A00C2
:10055000882341F481E080937A0080917B008F5F53
:1005600080937B0080917A00815080937A00809103
:100570007C00882341F481E080937C0080917D00A1
:100580008F5F80937D0080917C00815080937C0000
:10059000809169008F3019F488E080936E0080911B
:1005A0006E00882349F482E080936E0080916F0092
:1005B000882311F00E94300480916E008150809356
:1005C0006E00FF91EF91BF91AF919F918F917F91BD
:1005D0006F915F914F913F912F910F900FBE0F90B0
:1005E0001F901895189518951F920F920FB60F929D
:1005F00011248F939F9380915802909159028F9666
:1006000090935902809358029BBD8ABD9F918F9110
:100610000F900FBE0F901F9018951F920F920FB65C
:100620000F9211248F939F9380915A0290915B02B5
:100630008F9690935B0280935A0299BD88BD8091FA
:100640005C0290915D02019790935D0280935C0241
:10065000892B39F48D9889B78F7E89BF89B7877FB9
:1006600089BF9F918F910F900FBE0F901F9018958B
:1006700018951F920F920FB60F9211242F933F934C
:100680004F935F936F937F938F939F93AF93BF939A
:10069000CF93EF93FF938091600290916102892B39
:1006A00011F410926400C398C0915E02CC23D1F47F
:1006B00080E180935E0280E40E94640483E10E94F2
:1006C000640484E00E94640480915F0280550E946B
:1006D000640480915F028F5F80935F02843010F02A
:1006E000C0935F02C39AC49890E06FE748E850E077
:1006F00020916002309161028EB186238EB9F9019A
:10070000E40FF51F80818FB9779BFECF2F5F3F4F9E
:100710009F5F953088F33093610220936002C49A02
:1007200080915E02815080935E02C90180549140A5
:1007300050F081E080936400109261021092600298
:1007400089B78E7F89BFFF91EF91CF91BF91AF9114
:100750009F918F917F916F915F914F913F912F91D9
:100760000F900FBE0F901F9018951895189518951B
:1007700018951F920F920FB60F9211248F9384B188
:1007800085B18093620033983798D9988F910F90F4
:100790000FBE0F901F9018951895189518951895DD
:1007A00080936B028823F1F7089580B78B7F80BF19
:1007B0008AB38B708ABBD39A8BB3846F8BBBDB9865
:1007C000000089B38095847F8093640280B7846041
:1007D00080BF809162028F5F80936202813A28F02D
:1007E0001092620286E08093680290916402809188
:1007F0006302981781F1992371F1892F992780322B
:100800009105B9F08132910534F48430910569F095
:100810004097B9F01AC08034910579F0803891057D
:10082000A1F481E08093680212C082E080936802A4
:100830000EC083E0809368020AC084E0809368025F
:1008400006C085E08093680202C010926802109290
:1008500062020E94300480916402809363020895D2
:1008600080915C0290915D02892B69F58FE290E0A6
:1008700090935D0280935C0290935902809358029A
:1008800090935B0280935A028FB7807880936902BD
:10089000F89480915802909159029BBD8ABD809135
:1008A0005A0290915B0299BD88BD1DBC1CBC89B7E2
:1008B000806189BF89B7886089BF8D9A9FB7809111
:1008C0006902892B8FBF0895C49877988FB9779B59
:1008D000FECFC49A8FB1992708959927837090709D
:1008E0008130910581F0823091051CF4892B39F01B
:1008F00008958230910551F0039759F0089585B31A
:10090000837F85BB0895AA9AAB980895AA98AB9A5D
:100910000895AA9A0895CF93C82F992782309105F8
:1009200019F0039739F008C080916702C82FC0956D
:10093000C17002C0C09167028C2F9927009719F0EF
:10094000019721F005C0C09AC19802C0C19AC09811
:100950008FEF9FE00E940D02C098C198C09367027C
:10096000CF9108950F931F93CF93DF939C010CE6D3
:1009700012E0462F6623A1F0CAE0D0E0C801840F40
:10098000911DFC013197C901BE010E940112805DD9
:100990008083C901BE010E9401129B01415071F781
:1009A000DF91CF911F910F910895CEE5D4E0DEBF86
:1009B000CDBFF8949FE085B7892385BF85B7806355
:1009C00085BF1CBA80B7816080BF21E023BF89B793
:1009D00089BF80B7822B80BF80B780BF88B788BFB0
:1009E00089B789BF80E48FBD83E08EBD93BD8DE064
:1009F00085BD88E082BD89B7806889BF88B7806877
:100A000088BF80E58DB92EB9BF9ABE98BD9ABC9AB1
:100A100087B18F7387B987B187B93D983D9A87B100
:100A2000807E87B987B187B980B78F7180BF80B763
:100A3000806880BF3598359A339886B186B986B17B
:100A4000887F86B9329A80B7846080BFA29AA39AC1
:100A5000C09AC19AB89AB99AD998D19AD898D09888
:100A6000C39ABB9AC29ABA9AC2988FEF9FEF0E941C
:100A70000D02C29AC39882EE0E94640480EA0E942A
:100A8000640480EC0E94640482EA0E9464048CE2A4
:100A90000E9464048EE20E9464048FE20E94640457
:100AA00083E20E94640481E80E94640487E00E945B
:100AB00064048FEA0E94640489B7816089BF7894D6
:100AC0000E94D70F0E9468118CEC0E94E21184E40E
:100AD0000E94E2110E9430040E942D0841E0BE01F4
:100AE0006F5F7F4F80E090E00E942C1189818A3AED
:100AF00061F00E943E118AEA898341E0BE016F5F86
:100B00007F4F80E090E00E94051180E00E94800D00
:100B10008F3F11F40E94780C0E943004FF24F3945C
:100B200080916A00882311F010926A0080916C0015
:100B3000882339F080916D00809580936D0010922C
:100B40006C0080917500282F332780917E009927B3
:100B50004E968217930734F410927500379AD99AFB
:100B6000339ADECF80917300282F332780917E0047
:100B700099274E96821793070CF03FC0109273008E
:100B80000E9468118CEC0E94E2118EEB0E94E2112F
:100B900019828981982F893078F4892F99278C01BF
:100BA00008531E4F0E94F111F801808389818F5FE5
:100BB0008983982F893088F30E9468118CEC0E94F9
:100BC000E21184E40E94E211809166028F5F8093BB
:100BD0006602803510F010926602809166029927B5
:100BE000FC01EF52FE4F8091C901982F90788091BF
:100BF000C8018F77892B808393CF00E0909171009B
:100C000080917E00891708F074C0009371000E94E3
:100C1000D5038091680299278330910551F1843082
:100C2000910534F48130910561F0029771F053C061
:100C300085309105D9F1853091059CF10697E9F150
:100C40004AC0F09282000F2D46C082E0809382005D
:100C500001E080916300882331F480915502815036
:100C60008093630038C0809163008150809363005B
:100C700032C083E08093820001E080916300282FDE
:100C8000332780915502992701972817390719F4BE
:100C90001092630020C0809163008F5F8093630097
:100CA0001AC084E08093820001E015C085E0809343
:100CB000820001E010926F000EC080E2809361001C
:100CC000F092810080E180937E00809166008093A5
:100CD00068001092630010926802002351F0109295
:100CE0008100F09261008F2D8F5F80937D001092C4
:100CF0007E00809177008C33F0F0109277000E9494
:100D00001E0D882309F40CCF0E94300480917A02D2
:100D100082FF02C0F0926F0080917A02837080930C
:100D2000800080917F00833009F0FACE80918502A7
:100D300080936502F5CE80917900813108F43CC042
:100D40001092790080917F0099278130910581F080
:100D5000823091051CF4892B39F02EC08230910528
:100D600059F0039771F028C080E00E948B0424C0E2
:100D700081E00E948B0420C00E9422070E948B0405
:100D80001BC08091800099278230910569F08330E3
:100D900091051CF4019721F00FC0039749F00CC096
:100DA00080E00E948B0408C081E00E948B0404C094
:100DB0000E9422070E948B0480916200883988F487
:100DC00080917B008F3918F082E00E946D04809141
:100DD0007B00803AB0F010927B0080E00E946D04AE
:100DE00010C080917B008F3918F081E00E946D0463
:100DF00080917B00803A28F010927B0080E00E9476
:100E00006D0490917D0080916100891738F41092F3
:100E10007D000E94480889B7816089BF8091810068
:100E2000882309F47DCE80916F00882309F078CE65
:100E300080915C0290915D02892B09F071CE0E9435
:100E400010026ECE909165028091660221ED31E034
:100E5000F901E80FF11DE081E9171CF481E090E051
:100E600008959E171CF480E090E0089583E090E0E0
:100E70000895AF92BF92CF92DF92EF92FF920F93BD
:100E80001F93CF93DF93382F122F8D3018F03C50E3
:100E90003D30E8F786E0389FF00111243296862F26
:100EA0009927BC01637070706230710571F0633016
:100EB000710524F46130710529F00CC063307105AF
:100EC00039F008C0E05BFF4F05C0E056FF4F02C09D
:100ED000E051FF4F00916D00A0E0B0E085E0189F69
:100EE000E00111240F2EF1ECEF2EF1E0FF2EF02D9A
:100EF0000F2EF1E4CF2EFFEFDF2EF02D0F2EFDEDA4
:100F0000AF2EFEEFBF2EF02D842F9927AC0143703A
:100F100050709F0128573F4FA530B10530F5812F04
:100F20008052813240F4CE018A0F9B1FFC01EE0DEE
:100F3000FF1D84911BC0812F805C803240F4CE0164
:100F40008A0F9B1FFC01EC0DFD1D84910FC0812FAA
:100F5000805B843040F4CE018A0F9B1FFC01EA0DB8
:100F6000FB1D849103C080E001C080E04130510549
:100F700099F04230510524F44115510541F02AC041
:100F80004230510579F043305105C1F023C0F901D9
:100F9000EA0FFB1F80831EC0F901EA0FFB1F80953B
:100FA000808318C0002329F0F901EA0FFB1F10828B
:100FB00011C0F901EA0FFB1F80830CC0002329F048
:100FC000F901EA0FFB1F808305C0F901EA0FFB1F3F
:100FD000809580831196A630B10508F49DCFDF91EE
:100FE000CF911F910F91FF90EF90DF90CF90BF9026
:100FF000AF900895582F862F462F477021E030E09C
:1010000001C0220F4A95EAF7422F99278871907004
:101010008830910579F0893091051CF4892B39F0DD
:1010200008958031910549F0489751F0089520E0E6
:1010300030E008C020E530E005C020EA30E002C022
:1010400020EF30E088E890E0850F911DFC01E20F71
:10105000F31F8081842B8083089530E0232F309309
:10106000830065E043E850E0269FC0011124FC01A5
:10107000EA52FF4F8491882339F4FA01E30FF11DFE
:10108000822F8F5F81833F5F2F5F353068F3089534
:101090002F923F924F925F926F927F928F929F9288
:1010A000AF92BF92CF92DF92EF92FF920F931F9376
:1010B000CF93DF935524C52C9091600080916800F8
:1010C000981709F1C8E8D0E080E090E01992019605
:1010D00021E080349207D0F310926600809168007E
:1010E00080936700809360001092630081E080939A
:1010F000560210925502809189020E94800D8091C3
:1011000080020E94800D20916000253008F075C398
:1011100083E890E0FC01E20FF11DD0808824A82C28
:101120000F2EFDE82F2EF2E03F2EF02D0F2EFDE2C8
:101130004F2EF02DEE249E2C85E0D89EC001112468
:10114000FC01EA52FF4F3491FC01E952FF4FB49089
:10115000FC01E852FF4F2491FC01E752FF4FF4904D
:10116000FC01E652FF4F0491822F992792958295B8
:101170008F7089279F708927682E0F2EFFE07F2EA2
:10118000F02D7222CCE6D2E0832F9927807F9070D9
:101190008037910509F42CC1813791053CF58033E6
:1011A000910509F4CEC0813391057CF4803191051D
:1011B00009F4A8C08131910524F4892B09F442C0B7
:1011C00018C2809709F4A8C014C28035910509F4AB
:1011D000E2C0813591052CF48034910509F4BBC03F
:1011E00008C28036910509F4F0C003C2803B910526
:1011F00009F47BC1813B91058CF48039910509F498
:10120000EAC1813991052CF48038910509F4FAC0BE
:10121000F0C1803A910509F4A7C1EBC1803D910569
:1012200009F481C1813D91052CF4803C910509F4BC
:101230006FC1DFC1803E910509F4AFC1803F9105C8
:1012400021F0D7C1AA24A394D4C1932E832F992728
:101250008B3F910571F08C3F910524F48A3F9105F5
:1012600029F0C7C18C3F910539F0C3C100936700D5
:10127000C0C100936600BDC110E08FB78078809335
:101280006902F894212F3327C90188579F4FFC0129
:10129000E05BFF4F1082FC01E056FF4F1082FC0123
:1012A000E051FF4F1082F901EF52FE4F8081982FDD
:1012B00096958CE2C82FC91BCF3138F46C2F812F43
:1012C0000E94FA07CF5FCF31C8F368E0812F0E94F8
:1012D000FA0769E0809166020E94FA076AE080914D
:1012E00066020E94FA076BE0809166020E94FA078C
:1012F0008FB790916902892B8FBF1F5F103508F45B
:10130000BCCF77C1EE246894E2F86E2DF10186819E
:1013100097810E94B2046DC110E043E02AEA33E0F5
:10132000F1018581849FC0011124810F911DFC0171
:10133000E20FF31F849189931F5F133088F3E12E2E
:1013400058C1EE246894E1F8F10183816E2D99274C
:101350000E94B2044EC1013049F480918102C82E2E
:10136000C694C694C694C694C69402C0F101C480C3
:1013700010E08C2D99279C01280F391FC901810F7E
:10138000911DFC01EF52FC4F849189931F5F123035
:10139000A8F3E12E2EC1EE246894E1F8F3E0FF16E5
:1013A00049F48091810299276E2D8F7190700E946F
:1013B000B2041FC122E0F21609F01BC1F1018281C3
:1013C0006E2D99270E94B20414C1EE246894E1F8AE
:1013D000033039F4809182026E2D99270E94B20465
:1013E00008C1F10181816E2D99270E94B20401C1CB
:1013F000EE246894E1F8F10180816E2D99270E9416
:10140000B204F7C00F2EF5E0EF2EF02D802F9927B4
:101410008130910581F0823091051CF4892B39F0DF
:1014200034C08430910579F00597F1F02EC00F2E6D
:10143000F3E0EF2EF02D809166029927FC01EF5228
:10144000FE4FC08022C0809184020F2EF3E0CF2E89
:10145000F02DC822F2E0FC1520F081E080935702C5
:1014600014C0C090830211C081E080935702809124
:101470007F00823031F0833041F4809180008330EE
:1014800021F4C09065021092570280915702882380
:1014900051F080E2888349824A828EE28B834C82BB
:1014A00010925702A6C08EE28B83C0FE03C085E374
:1014B0008C8302C080E38C83CC2054F4C194C69406
:1014C00063E08C2D99270E94B20420E8C22A06C04E
:1014D0008C2D869563E099270E94B204CC2014F4E9
:1014E000488287C08BE2888384C0EE246894E1F848
:1014F000313B39F4809186026E2D99270E94B20407
:1015000078C080918C026E2D99270E94B20471C020
:10151000EE24E3948091840282FF03C081ED8883EE
:1015200068C0488266C0EE24E394809184029927C3
:10153000837090708130910571F0823091051CF4B8
:10154000892B39F056C08230910541F0039749F05C
:1015500050C048824EC083EB88834BC082EB8883A7
:1015600048C082ED888345C080917F0099278130F3
:10157000910571F0823091051CF4892B39F00DC072
:101580008230910539F0039739F007C004E005C0B7
:1015900003E003C002E001C001E0E02FFF27EE0FEF
:1015A000FF1FE255FF4F25913491EE248E2D992790
:1015B000DE01A80FB91FFC01E20FF31F84918C9389
:1015C000E394CE018E0D911DFC013197808188231B
:1015D00069F7EA940EC0EE24E394809167028E15B9
:1015E00011F482EB888380916702882311F483EBE6
:1015F0008883AA2009F0ECC0992009F0E8C0809106
:101600005602882381F0662009F4CAC02091550251
:10161000822F9927FC01EF5DFD4FD082822F8F5FD3
:1016200080935502BDC0572C80915502882309F440
:10163000B7C0809163009927FC01EF5DFD4F808169
:101640008D1509F0ADC0562C8F2D99278530910549
:1016500009F452C0863091054CF48330910521F194
:10166000843091057CF5029789F098C08730910508
:1016700009F456C0873091050CF448C08A309105B2
:1016800009F462C00C9709F46EC088C08091820092
:10169000813019F0843009F081C080918200602F80
:1016A00081700E9438107AC080918200813019F0D8
:1016B000843009F073C080918200602F81700E9495
:1016C000CB0E6CC080918200813041F48091890200
:1016D0000E94800D809187020E94800D809182007F
:1016E000843009F05BC0809189020E94800D809156
:1016F0008A020E94800D52C080918200853009F0DC
:101700004DC00E94780C1092630048C08091820006
:10171000853009F043C00E94D40C109263003EC093
:101720009091650280918200813021F498374CF4C9
:101730009F5F07C080918200843019F499380CF0C3
:101740009150909365022AC080918200853041F4C7
:10175000809167008093680010928200AA24A3946D
:10176000882483941BC0C0907F00809182008130C8
:1017700039F482E08C1510F0C3940EC0CC240CC058
:1017800080918200843041F4CC2011F0CA9404C0CE
:101790000F2EF3E0CF2EF02DC0927F00109282002A
:1017A000CCE6D2E010E01E1590F4FB2CF694F694F3
:1017B000F694F6940B2D0F702991452D6F2D6370C3
:1017C000802F810F0E9439071F5F1E15A8F3D39445
:1017D000AA2009F4AFCC80915602882311F0109210
:1017E0005602882051F480918200853031F4809136
:1017F00067008093680080928200DF91CF911F91F3
:101800000F91FF90EF90DF90CF90BF90AF909F909F
:101810008F907F906F905F904F903F902F900895A2
:10182000FF920F931F93CF93DF93CDB7DEB721972E
:101830000FB6F894DEBF0FBECDBF1982082F112757
:10184000000F111F000F111F0F5F1F4FFF2441E0FA
:10185000BE016F5F7F4FC8018F0D911D0E94051162
:10186000F39483E08F1598F721960FB6F894DEBFB6
:101870000FBECDBFDF91CF911F910F91FF900895C3
:101880009927880F991F880F991F44E061E872E03B
:1018900001960E942C1108959927880F991F880F8F
:1018A000991F44E061E872E001960E9405110895D5
:1018B000FC018081382F329536953770282F2F7193
:1018C00091819B3360F090E0273138F0292F36303A
:1018D00010F0392F05C03F5F03C02F5F01C09F5F2D
:1018E000832F8295880F807E822B80839183089539
:1018F000CF93DF93CDB7DEB724970FB6F894DEBF52
:101900000FBECDBF80917F02833608F042C0809128
:101910008B020E94800D8091810290918202A091A1
:101920008302B091840289839A83AB83BC83CE0106
:1019300001960E94580CFE01319685E2828380E870
:10194000838380917F029927880F991F880F991FA1
:1019500044E0BF0101960E94051189819A81AB8103
:10196000BC818093810290938202A0938302B09302
:10197000840280917F0280938B020E94800D81E01F
:101980008093790280918C028093860280E090E0BF
:1019900002C080E090E024960FB6F894DEBF0FBE40
:1019A000CDBFDF91CF910895809189020E94100CE4
:1019B000809189020E94800D8F3F11F40E94780C63
:1019C00080E090E00895FC01DB0190EE2081322F51
:1019D00039238C9198232F71482F4F718181582F73
:1019E0005F73FB0181818F73391718F481E090E0F8
:1019F0000895931718F48FEF90E008953917D9F4EC
:101A0000241718F481E090E00895421718F48FEF3E
:101A100090E00895241779F4581718F481E090E0C5
:101A20000895851718F48FEF90E00895581719F46A
:101A300080E090E0089580E090E00895CF92DF92FA
:101A4000EF92FF920F931F93CF93DF93CDB7DEB743
:101A500024970FB6F894DEBF0FBECDBF80919102E0
:101A6000982F9295990F907E80918F02890F809385
:101A70007B0280918E0280937C02FF246E01089489
:101A8000C11CD11C80917902882321F080918902A8
:101A9000F81609F18F2D9927880F991F880F991F24
:101AA00044E0BE016F5F7F4F01960E942C11F6014A
:101AB000E380EE2084F46BE772E0C6010E94E30C41
:101AC000882349F4F601828180938502E0927A02AC
:101AD00081E090E006C0F394F2E6FF1598F680E00E
:101AE00090E024960FB6F894DEBF0FBECDBFDF9115
:101AF000CF911F910F91FF90EF90DF90CF900895BD
:101B0000DF92EF92FF920F931F93CF93DF93CDB7A6
:101B1000DEB768970FB6F894DEBF0FBECDBF082FB3
:101B2000DD2481E080938602102F7E010894E11C61
:101B3000F11C812F9927880F991F880F991F44E066
:101B4000BE016F5F7F4F01960E942C11F7018381C8
:101B50008823ACF0011760F4133640F082E68093DE
:101B60007F0210928C028FEF90E007C11F5FE1CFE0
:101B7000112319F4102F1F5FDCCF1150DACF109210
:101B8000790280917F02801711F0DD24D394012F18
:101B90001093890289819A81AB81BC8180938102F3
:101BA00090938202A0938302B093840289879A87DC
:101BB000AB87BC87109380028D879E87AF87B88BD9
:101BC0001093880283E680937F0210928C0210E0CB
:101BD0000F2EF5E0EF2EFF24F02DEC0EFD1E812FD1
:101BE0009927880F991F880F991F44E0BE016B5FEA
:101BF0007F4F01960E942C11F7018381882374F591
:101C000080918C028F5F80938C02BE01675F7F4F53
:101C1000C7010E94E30C813059F48D819E81AF8110
:101C2000B88589879A87AB87BC871093800218C0D4
:101C3000BE01635F7F4FCE0105960E94E30C99279A
:101C40008F3F910569F48D819E81AF81B8858D8725
:101C50009E87AF87B88B1093880202C010937F02D3
:101C60001F5F133608F4BBCF89859A85AB85BC8589
:101C7000898B9A8BAB8BBC8B8091800280938A027C
:101C80008D859E85AF85B8898D8B9E8BAF8BB88FE8
:101C9000809188028093870210E00F2EF5E0EF2EEE
:101CA000FF24F02DEC0EFD1E812F9927880F991F20
:101CB000880F991F44E0BE016B5F7F4F01960E9421
:101CC0002C11F701838188230CF051C0BE016F5F96
:101CD0007F4FC7010E94E30C99278130910551F095
:101CE000823091051CF4892BA1F141C08F3F9105F1
:101CF000E1F03DC0809186028F5F80938602BE0135
:101D00006F5E7F4FCE0105960E94E30C99278F3FAF
:101D1000910569F58D819E81AF81B885898B9A8BFC
:101D2000AB8BBC8B10938A0222C0BE016B5E7F4FCF
:101D3000CE0105960E94E30C8130C9F48D819E810D
:101D4000AF81B8858D8B9E8BAF8BB88F1093870238
:101D50000EC0011761F0DD2051F080918C0281509E
:101D600080938C0210937F02812F0E94100C1F5FC2
:101D7000133608F499CF80E090E068960FB6F89497
:101D8000DEBF0FBECDBFDF91CF911F910F91FF90AE
:101D9000EF90DF900895282F862F992783309105A3
:101DA00009F445C08430910534F48130910579F00F
:101DB000029729F17AC08530910509F458C0853021
:101DC00091050CF446C0069709F458C06EC0809186
:101DD0008102982F907E222331F0903C11F490E004
:101DE00007C0905E05C0992311F490EC01C0905299
:101DF000809181028F71892B8093810256C08091DE
:101E00008102982F9F71222331F0973110F49F5F48
:101E100007C090E005C0992311F0915001C097E1EF
:101E200080918102807E892B809381023EC09091B7
:101E30008202222331F09B3310F49F5F07C090E0B1
:101E400005C0992311F0915001C09BE39093820249
:101E50002CC080918302222321F088372CF48F5FDD
:101E600003C089380CF08150809383021EC080919A
:101E7000840294E089278093840217C080918402B1
:101E8000982F9370933010F49F5F01C090E0809181
:101E900084028C7F892B80938402933021F485E225
:101EA0008093830202C010928302809189020E9473
:101EB0004C0C809189020E94400C0895109295026A
:101EC0002091930230919402C90183709070892B04
:101ED00089F4C90164E670E00E940112892B39F48B
:101EE000C90160E971E00E940112892B19F481E0B7
:101EF0008093950208952091920280EA93E0FC017C
:101F0000E20FF11D949190939602223029F4809172
:101F10009502890F8093960208950F931F93309135
:101F200092020CE010E08EE090E0831B9109B80172
:101F30000E9415128091930290919402FC01E61B7D
:101F4000F1098CE0689FC0011124432F480F4250D3
:101F5000809190029F01280F311DCF0196958795A2
:101F600096958795280F391FCF0164E670E00E948F
:101F70000112261B370BCF0160E971E00E940112AC
:101F8000260F371F8FE1489FC0011124B8010E941E
:101F90001512CB01820F931F885A944E67E070E0B0
:101FA0000E940112809391021F910F9108958CE07D
:101FB00080938F0210928E028CE18093900282E0D7
:101FC0008093920287ED97E090939402809393021E
:101FD0000E945E0F0E947B0F0E948D0F08958091DA
:101FE0008D028F5F80938D028C3308F440C0109275
:101FF0008D0280918E028F5F80938E028C33B8F1B8
:1020000010928E0280918F028F5F80938F028831B1
:1020100070F110928F02809191028F5F80939102F4
:10202000873010F01092910280919002982F9F5F5C
:1020300090939002809196028917C8F491E0909352
:10204000900280919202890F809392028D3068F005
:1020500090939202809193029091940201969093B2
:102060009402809393020E945E0F0E947B0F08955A
:10207000282F862F99278230910589F18330910589
:102080002CF4009771F0019779F008958430910550
:1020900009F477C084309105ECF1059709F499C0F3
:1020A000089510928D020895222359F080918E0296
:1020B0008B3320F48F5F80938E02089510928E02EE
:1020C000089580918E02882321F48BE380938E0201
:1020D000089580918E02815080938E02089522236C
:1020E00059F080918F02873120F48F5F80938F02A7
:1020F000089510928F02089580918F02882321F411
:1021000087E180938F02089580918F0281508093A0
:102110008F0208952223C9F0909190028091960237
:10212000981728F4892F8F5F8093900203C081E075
:102130008093900280919102863020F48F5F80938B
:102140009102089510929102089580919002813039
:1021500029F4809196028093900205C080919002AC
:1021600081508093900280919102882321F486E02F
:102170008093910208958091910281508093910201
:102180000895222361F0809192028C3020F48F5FB9
:102190008093920211C081E0809392020DC08091E1
:1021A0009202813021F48CE08093920205C08091EC
:1021B00092028150809392020E947B0F8091900244
:1021C00090919602981710F4909390020E948D0FB0
:1021D0000895222351F080919302909194020196E8
:1021E000909394028093930209C0809193029091FE
:1021F0009402019790939402809393020E945E0F41
:102200000E947B0F0E948D0F08959C01FB0150E0FE
:10221000541708F560E8E199FECF3FBB2EBBE09A6A
:102220009DB38081981721F42F5F3F4F319610C0E6
:1022300081918DBB8FB7862380936902F894E29ACF
:10224000E19A9FB780916902892B8FBF2F5F3F4F23
:102250005F5F541700F308959C01FB01E199FECFE5
:1022600090E0941750F43FBB2EBBE09A8DB381935E
:102270002F5F3F4F9F5F9417B0F308950F931F9305
:10228000CF93DF93CDB7DEB721970FB6F894DEBFBB
:102290000FBECDBF198200E010E041E0BE016F5FCC
:1022A0007F4FC8010E9405110F5F1F4F82E0003071
:1022B000180798F321960FB6F894DEBF0FBECDBF76
:1022C000DF91CF911F910F9108950197F1F7089534
:1022D0001F938FB7807880936902F894A598AD9882
:1022E00088E090E00E946511A59A80E09FE00E943E
:1022F0006511A59888E790E00E94651183B3182FB7
:102300001095107280E09FE00E9465119FB7809148
:102310006902892B8FBF812F99271F9108951F93E1
:10232000182F8FB7807880936902F894A598AD989C
:102330008AE090E00E946511112359F4A59A80E586
:1023400090E00E946511A59888E290E00E946511D6
:102350000AC0A59A87E090E00E946511A5988EE6D4
:1023600090E00E9465118FB790916902892B8FBF11
:102370001F910895CF938FB7807880936902F89466
:10238000A598AD988AE090E00E946511A59A87E033
:1023900090E00E946511A59887E090E00E94651189
:1023A0009D9B02C0C0E801C0C0E088E790E00E94A9
:1023B00065118FB790916902892B8FBF8C2F992758
:1023C000CF9108951F93CF93C82F10E08C2F817069
:1023D0000E948F11C6951F5F1830C0F3CF911F91D7
:1023E00008951F93CF93C0E01C2FC6950E94BA1189
:1023F000C82B1F5F1830C8F38C2F9927CF911F91DE
:102400000895AA1BBB1B51E107C0AA1FBB1FA6173B
:10241000B70710F0A61BB70B881F991F5A95A9F78D
:1024200080959095BC01CD01089597FB092E072654
:102430000AD077FD04D0E5DF06D000201AF47095AD
:1024400061957F4F0895F6F7909581959F4F089578
:062450000101FF01010083
:00000001FF
